:100000000C94E7010C942E020C942E020C942E02F8
:100010000C942E020C942E020C942E020C942E02A0
:100020000C942E020C942E020C94BA250C948D265E
:100030000C94B51A0C942E020C942E020C942E02E1
:100040000C942E020C942E020C942E020C942E0270
:100050000C942E020C94201B0C942E020C942E0255
:100060000C942E020C942E020C942E020C942E0250
:100070000C942E020C942E020C942E020C942E0240
:100080000C942E020C942E020C942E020C942E0230
:100090000C942E020C942E020C942E020C942E0220
:1000A0000C942E020C942E020C942E020153540038
:1000B000550056515F006000610000005C005D006B
:1000C0005E00570059005A005B0000006200295D85
:1000D0006300580049004A004B0001534C004D009A
:1000E0004E00000000000000000000000000520070
:1000F00000000000500051004F0000000000000010
:10010000000000002A2B2800000000000000000072
:100110000000000000000029000000002C1E342018
:10012000212224342627252E362D3738271E1F203E
:100130002122232425263333362E37381F04050683
:100140000708090A0B0C0D0E0F10111213141516C7
:100150001718191A1B1C1D2F3130232D35040506C5
:100160000708090A0B0C0D0E0F10111213141516A7
:100170001718191A1B1C1D2F3130354C00000000B8
:10018000000000000000000000000000000000006F
:10019000000000000000000000000000000000005F
:1001A0007E0F00D4FFFFFFC7000000786603230026
:1001B00064006500660069006E006500200079003B
:1001C00061006D00700061006400200071002E006D
:1001D0006D002E006B002E0020006B006500790082
:1001E00062006F0061007200640020006600690018
:1001F00072006D00770061007200650020006600EB
:100200006F0072002000590061006D0070006100F5
:10021000640000000C03430061007200650074007C
:1002200000000403090409029F00040100A0FA0968
:100230000400000103010100092111010001224015
:10024000000705810308000A0904010001030000FA
:100250000009211101000122B600070582032000D8
:100260000A080B020201010000090402000001015A
:100270000000092401000109000103090403000230
:1002800001030000072401000141000624020101CE
:1002900000062402020200092403010301020100F6
:1002A00009240302040101010009050402400005BC
:1002B0000000052501010109058302400005000039
:1002C00005250101031201100100000008EDFE6088
:1002D0006001000102000105010902A10185020976
:1002E00001A10005091901290815002501950875C6
:1002F0000181020501093009311581257F950275BB
:1003000008810609381581257F9501750881060544
:100310000C0A38021581257F950175088106C0C039
:1003200005010980A101850319012AB700150126DD
:10033000B700950175108100C0050C0901A1018568
:100340000419012AA002150126A002950175108149
:1003500000C005010906A1018505050719E029E787
:10036000150025019508750181020507190029EF7F
:100370001500250195F0750181020508190129056F
:10038000950575019102950175039101C00501095B
:1003900006A101050719E029E71500250195087553
:1003A0000181029501750881010507190029FF15D2
:1003B0000026FF009506750881000508190129052A
:1003C000950575019102950175039101C0001124F5
:1003D0001FBECFEFDAE0DEBFCDBF04B603FE27C0FD
:1003E0008091900390919103A0919203B091930317
:1003F0008730904BA740B04BD1F4109290031092ED
:100400009103109292031092930314BE84B7877FD6
:1004100084BF0FB6F894A89580916000886180939E
:100420006000109260000FBEE0E0F8E3099511E073
:10043000A0E0B1E0E2E3F2E502C005900D92A83938
:10044000B107D9F723E0A8E9B1E001C01D92A039B6
:10045000B207E1F70E94A5220C94C2280C94000078
:100460009C01FB019A9581159F4118F5D901AA2796
:10047000B270832F8170B90166277470A901442777
:10048000587034FF0CC08295807FAB2B09F08062DE
:10049000672B09F08064452B09F080680994AB2B29
:1004A00009F08260672B09F08460452BB9F38860FE
:1004B000F5CF0895CF93DF93EC01805E9109089703
:1004C00020F06CED71E1209711F469E37FE0CE013B
:1004D0000E9430028C2FDF91CF910C949E0ECF930F
:1004E000DF93EC010E94EB0ECE01805E910908972C
:1004F00020F063EE71E1209711F460E47FE0CE011B
:10050000DF91CF910C943002CF93DF93D82FC92F76
:100510000E945A028D2F9C2FDF91CF910C946F0275
:1005200081E0089581E008950C94920208950C945E
:1005300096021F93CF93DF9300D000D00F92CDB7D8
:10054000DEB749835A836B833091C20189819A81D6
:1005500031111DC06623B9F02223A9F00E949F1714
:10056000182F682F89819A810E944A1769817A81A0
:10057000812F0F900F900F900F900F90DF91CF91E0
:100580001F910C94C3030E947717182FEFCF0E947E
:100590009F1769817A81EDCFFC01262F408151811F
:1005A0006281738184810C949902CF93DF93D82F59
:1005B000C92F60E00E94CC026D2F7C2FDF91CF917C
:1005C0000C9497020E94F318811102C00E949C199A
:1005D0000E94B80A0C94CF050C94D20508950E948D
:1005E00000120E94EE022FEF84E39CE02150804035
:1005F0009040E1F700C000000C94441B0F931F9340
:10060000CF93DF93EC0161E00E94CC028C01BE012C
:100610000E949402882359F1BE01C8010E94410B37
:10062000882329F1BE01C8010E94CB0B8823F9F071
:10063000BE01C8010E94200C8823C9F0BE01C80178
:100640000E94F80C882399F08A81882339F00115DB
:100650008CE5180751F00F3D1C4579F0CE01DF9174
:10066000CF911F910F910C9490020E94EF0280E0B5
:10067000DF91CF911F910F9108950E949C19F7CFA0
:10068000DF92EF92FF920F931F93CF93DF93E82FA8
:10069000F0E0E450FF4FD490282F2695269526951C
:1006A00030E0F901E456FE4F0491877010E0082E07
:1006B00002C0159507950A94E2F701701127F90118
:1006C000E457FE4FE490F12C082E02C0F594E79415
:1006D0000A94E2F791E0E922FF24F901E458FE4F81
:1006E000C491D0E002C0D595C7958A95E2F7C17054
:1006F000DD270115110519F081EE0E949E0EE1140F
:10070000F10419F086EE0E949E0E8D2D0E94310F8D
:10071000EF2819F086EE0E94EB0E012B19F081EE06
:100720000E94EB0ECD2B51F08CE2DF91CF911F9107
:100730000F91FF90EF90DF900C94310FDF91CF91EC
:100740001F910F91FF90EF90DF900895982F9F7069
:100750009A50963018F0805D0C944003895AFCCF73
:1007600008950C94B00381E008950C94B303CF93E3
:10077000C82F0E94B1038C2FCF910C94B50390E049
:1007800080E008950895E72FF0E095E0899FE00D5F
:10079000F11D1124EE0FFF1FEE0FFF1FE60FF11DDD
:1007A000EE0FFF1FE455FF4F859194910895FC01D2
:1007B000EE0FFF1FE455FE4F859194910895CF935E
:1007C000DF930E94C3030E94F304EC01811520E52E
:1007D000920708F043C0811530E4930708F0B2C0D7
:1007E000803E9105E8F4803C910508F0A0C0883A6D
:1007F000910578F4853A910508F08BC08130910518
:1008000021F00497813A910540F4CE01DF91CF9118
:1008100008958F3B910509F07FC0D0E0C0E0F5CF8F
:10082000C11580E2D80770F4CF3FD10509F068F711
:10083000C83ED10550F3CE018D5E9109D065439736
:1008400020F3EBCFCE01C11520E3D20708F475C029
:100850009927D3FD74C0EC01D06CD7CF811535E555
:10086000930760F5C11584E5D80708F09EC0C1154F
:1008700023E5D20778F4C11532E5D30708F082C02A
:10088000C11581E5D80708F460C0DC2FCC27C16F03
:10089000D06ABBCF9E012370332781E090E002C075
:1008A000880F991F2A95E2F7C695C69520E2C29F48
:1008B000E0011124C82BD92BDA68A7CF81153AE5BE
:1008C0009307B0F4C11589E5D80708F07EC0C115BB
:1008D00026E5D20708F46EC0CE0198558F3F9105EA
:1008E00011F008F09ACFDC2FCC27C06FD06A8DCFE3
:1008F00090568115904208F090CF8D2F8F710E94F5
:100900008B0590E0982F882788279F718C2BEC010E
:100910005AC0A497D06479CFC85AD0E0CC0FDD1F5D
:10092000CC5DDE4F0990D881C02DD4646ECF805C41
:1009300091090E94D703EC0168CF9F70FACFEC01B8
:10094000D86C63CFDF70D06A60CF9E0174E03695BB
:1009500027957A95E1F723708C2F8695869583707D
:1009600030E2839FC0011124922BC37021E030E05C
:1009700002C0220F331FCA95E2F7822B932BEC01A2
:10098000DC6843CF9E012370332781E090E002C0F2
:10099000880F991F2A95E2F7C695C69520E2C29F57
:1009A000E0011124C82BD92BEBCFDC2FCC27C46F4F
:1009B000D06A2BCF8C2F0E948B05C82FD0E0DC2F64
:1009C000CC27CC27DF71D06220CF8C2F8F700E9474
:1009D0008B0534E0D695C7953A95E1F7CF709C2FFB
:1009E000EC01D06912CF803E910599F1C8F48133B2
:1009F000910509F476C048F48932910509F46AC07A
:100A00008A32910509F474C0089589339105D1F0B3
:100A100082389105B9F08533910509F454C00895E1
:100A2000843E910599F138F4823E9105F9F0833EB8
:100A3000910509F10895863E910599F1873E91054A
:100A4000B9F10895209194022370A1F080EE90E016
:100A500008952091940220FD52C03091950230FFFC
:100A600009C024FF4FC090E080E004C020919402B0
:100A700022FDF7CF08952091940222FD46C03091C7
:100A8000950230FDE3CF24FFF5CFEDCF2091950205
:100A900021FFF0CF8091940284FDE5CF87EE90E0B6
:100AA00008952091940223FFE5CF24FDDCCFF6CFFB
:100AB0002091940223FD2CC03091950231FFE3CFA9
:100AC00084EE90E008952091940225FFD3CF89E22F
:100AD00090E008952091940225FFCCCF85E390E02B
:100AE00008952091940226FFC5CF8AE290E00895F0
:100AF0002091940226FFBECF81E390E0089589E320
:100B000090E0089583EE90E0089582EE90E00895DD
:100B100086EE90E008959091940292FF06C0282FEF
:100B200028712830F9F4877F846093FF06C0282F4E
:100B300028712831F1F4877E84612091950220FF8D
:100B400006C0382F38713830D9F4877F816021FF93
:100B500006C0282F28712831D1F4877E816194FD49
:100B6000877E0895282F24712430F9F68B7F8860C2
:100B7000DCCF282F2471243101F78B7E8861DDCFF3
:100B8000382F3171313019F78E7F8860E0CF282FF0
:100B90002171213121F78E7E8861E1CF08950C9477
:100BA000CE0508950C94D105E82FF0E0EB57FD4FEA
:100BB00080810895089580EA8A95F1F7089500C02C
:100BC00008950C94DB05F894E82FE295EF70F0E0BF
:100BD00041A18F7021E030E0B90102C0660F771F9C
:100BE0008A95E2F7CB01962F9095942391A392A139
:100BF000892B82A37894089581E30E94E30583E31F
:100C00000E94E30582E30E94E30586E30E94E30578
:100C100086E60E94E30587E90E94E30586EC0E94D0
:100C2000E30584E30E94E30585E30E94E30585E094
:100C3000E0E8F2E0DF01982F1D929A95E9F7E5E8E8
:100C4000F2E0DF011D928A95E9F785E00E94AF0688
:100C50000C94E202AF92BF92CF92DF92EF92FF929A
:100C60000F931F93CF93DF9302E511E0D0E0C0E034
:100C7000B12CEE24E394F12C95E8C92E92E0D92E04
:100C8000F80181918F01F894E82FE295EF70F0E080
:100C900021A18F70A70102C0440F551F8A95E2F76A
:100CA000CA01922F982B91A392A18095892382A3A8
:100CB00078940E94DF05C7010C2E01C0880F0A94AA
:100CC000EAF7782F7095682FA0E8B2E026E531E0CA
:100CD000A12C9D91F90181919F01E82FE295EF7080
:100CE000E05EF0E0408150E08F7002C0559547957E
:100CF0008A95E2F7892F40FD30C0862B981729F09E
:100D0000FD0131978083AA24A394CA16DB0609F754
:100D1000F801319780810E94E305C33011F00E94F1
:100D2000E105BA282196C430D10509F0A9CF2B2DB1
:100D300045E065E872E080E892E00E94B0060E941B
:100D4000EC028B2DDF91CF911F910F91FF90EF90CF
:100D5000DF90CF90BF90AF9008958723CFCF0895B5
:100D6000FF920F931F93CF93DF93F82E092F162F27
:100D7000D72FC42F222349F081E080939C010E9449
:100D8000E51A90939B0180939A0180919C0188239E
:100D9000A1F080919A0190919B010E94111B0697EE
:100DA00060F0EF2DF02FA12FBD2FCF018C0F911DE3
:100DB000E817F90741F410929C01DF91CF911F9140
:100DC0000F91FF90089521912D93F2CFEF92FF9212
:100DD0000F931F93CF93DF93CDB7DEB7AC970FB6CA
:100DE000F894DEBF0FBECDBF962FBA01A901213204
:100DF000310590F520EF29831A821B821C827A012B
:100E000022E0E20EF11C0CE210E00E191F09E1E0F5
:100E1000F0E0EC0FFD1F0E0F1F1FF8018083918380
:100E2000C80102960E947728A701B801CE01059655
:100E30000E94B91EBC01E5E0F0E0EC0FFD1FE80FD9
:100E4000F91F87EF80836B5F7F4FAE014F5F5F4F6E
:100E500086E992E00E94C71BAC960FB6F894DEBFFD
:100E60000FBECDBFDF91CF911F910F91FF90EF90FB
:100E700008950E947028DA016D937D938D939C9361
:100E80001397089581E008950C9442070C94440749
:100E9000EF92FF920F931F93CF93DF93CDB7DEB7FF
:100EA00028970FB6F894DEBF0FBECDBFF82EE92EFF
:100EB0008B010E944607882349F0D8014C914032AB
:100EC00021F188F4403139F14131B1F428960FB65F
:100ED000F894DEBF0FBECDBFDF91CF911F910F9170
:100EE000FF90EF900895423468F4403478F741322F
:100EF00069F34053423050F32F2D3E2DA80160E09E
:100F000080E833C04038C1F7E1CFF80181818230F9
:100F100069F08430F1F0D8011196EC91E150ED3098
:100F2000A8F6F0E0EC53F74D0C946A2812968C91D9
:100F30000E940619F8018281282F30E050E040E03D
:100F40002D833E834F835887CA01B9010E948615BD
:100F5000E2CF12968C9190E00E941919DCCF30E01C
:100F600020E050E040E061E081E128960FB6F8947F
:100F7000DEBF0FBECDBFDF91CF911F910F91FF90CC
:100F8000EF900C94E60682E090E00E94802889832E
:100F900021E030E0AE014F5F5F4F68E081E10E94E9
:100FA000E60694CF83E090E00E948028898321E0C8
:100FB00030E0AE014F5F5F4F62E0F0CF20910A0258
:100FC00030910B0240910C0250910D022D833E8313
:100FD0004F835887AE014F5F5F4F6D817E818F8158
:100FE00098850E94390724E030E0AE014F5F5F4FE3
:100FF00063E0D4CF30E020E050E040E069E0B4CFDF
:1010000030E020E050E040E065E0AECF30E020E0AE
:1010100050E040E066E0A8CF0E940B19898321E0F0
:1010200030E0AE014F5F5F4F64E0B8CF85E094E001
:101030009A83898322E030E0AE014F5F5F4F6DE01D
:10104000ADCF86E992E00C94FB1D8091A30180FF57
:1010500012C06091050185E0689FB001112475956B
:1010600067957595679560387105A8F561157105E7
:10107000A1F1862F089581FF09C06091050185E0E7
:10108000689FB001112475956795EDCF60910501BA
:1010900082FD0AC02091A2012223D1F09091040187
:1010A00060910501291728F085E0689FB00111249F
:1010B000DACF269F9001112485E0829FA001839FB3
:1010C000500D1124692F70E0CA010E945628CBCF21
:1010D00065E070E0CECF8FE7089581E008958091BC
:1010E000A30180FF0CC06091010170E075956795C8
:1010F000759567956115710549F1862F089581FFF2
:1011000006C06091010170E075956795F3CF60911D
:10111000010182FD0BC09091A1019923A1F0609182
:10112000000180910101961738F0682F70E0603857
:10113000710500F38FE70895899FC001112470E0C5
:101140000E945628F4CF61E070E0D7CF81E0089587
:10115000E3E1E80FE331E0F5F0E0EF52F74D0C94F6
:101160006A280E94250881958093A70108950E940E
:101170002508FACF0E94250881958093A60108953D
:101180000E942508FACF0E946F088093A801089555
:101190000E946F088195F9CF0E946F088195809316
:1011A000A90108950E946F08FACF815F990B21E091
:1011B00030E001C0220F8A95EAF78091A501822BC9
:1011C0008093A50108958091A30181608093A3017C
:1011D00008958091A3018260F9CF8091A30184607A
:1011E000F5CF4091A6018D3E59F48091A70187FF6C
:1011F0000DC01092A70141110BC01092A20108C0AE
:101200008E3E81F48091A70118169CF3442381F04F
:101210008091A8019091A901892B09F05AC01092E0
:10122000A10108958F3E49F447FFF0CF1092A60127
:101230008091A7018111ECCFE0CF803F19F4141603
:10124000ACF3E4CF9091A801893F29F41916F4F684
:101250001092A801DBCF8A3F19F497FFD7CFF8CFC0
:101260009091A9018B3F29F497FFD0CF1092A9014B
:10127000CDCF8C3F19F41916CCF3C8CF9FE0980F4F
:10128000983090F4815F990B21E030E0B90102C001
:10129000660F771F8A95E2F7CB0180959091A501A3
:1012A00089238093A501B2CF8D3F31F48091A301B2
:1012B0008E7F8093A301AACF8E3F21F48091A3015A
:1012C0008D7FF7CF8F3F09F0A1CF8091A3018B7F56
:1012D000F0CF08950E94E51A2091A6013091A70150
:1012E000232B21F080939F019093A0012091A801CE
:1012F0003091A901232B21F080939D0190939E01B1
:1013000084EA91E00C945B0DCF92DF92EF92FF9212
:101310000F931F93CF93DF9300D000D000D0CDB7B1
:10132000DEB726E0E4EAF1E0CE010196DC010190AF
:101330000D922A95E1F7C090A601D090A701E09008
:10134000A801F090A9011092A6011092A701109295
:10135000A8011092A9012C2D2D298C0191F08091CA
:101360009F019091A0010E94111B9C018091A201FC
:10137000882309F440C0909106019217130608F4DF
:1013800048C08E2D8F2991F080919D0190919E01F2
:101390000E94111B9C018091A101882309F478C04F
:1013A000909102019217130608F480C08091A60163
:1013B0009091A701892B9091A801892B9091A90167
:1013C000892B11F00E946A0986E0F801A4EAB1E0D5
:1013D00001900D928A95E1F726960FB6F894DEBF3C
:1013E0000FBECDBFDF91CF911F910F91FF90EF9076
:1013F000DF90CF900895409107019AE0499FA001A6
:1014000011244217530708F0BCCF8F5F8093A201CD
:1014100002C08F3FD1F7CC2059F00E9425089FEFE2
:101420001C140CF491E0899F802D11248093A60157
:10143000DD2059F00E9425089FEF1D140CF491E067
:10144000899F802D11248093A7013091A601332319
:1014500009F497CF2091A701222309F492CF45EBFD
:101460003403C0011124992359F09093A60145EB50
:10147000240390011124332339F03093A70181CF45
:1014800081E08093A601F3CF81E08093A70179CF1B
:10149000409103019AE0499FA0011124421753078C
:1014A00008F084CF8F5F8093A10102C08F3FD1F7F6
:1014B000EE2059F00E946F089FEF1E140CF491E08B
:1014C000899F802D11248093A801FF2059F00E944C
:1014D0006F089FEF1F140CF491E0899F802D112459
:1014E0008093A9013091A8012091A901332309F427
:1014F0005DCF222309F45ACF45EB3403C0011124F8
:10150000992359F09093A80145EB240390011124ED
:10151000332339F03093A90149CF81E08093A801AA
:10152000F3CF81E08093A90141CF86E0E4EAF1E0C6
:10153000DF011D928A95E9F71092A2011092A10194
:101540001092A3010895CF93DF93EC01FB0197FF65
:101550000BC08281882341F00E94CE0ACE019F7782
:101560000E94260B0E94080B81E0DF91CF91089525
:101570008CE090E00E94802890E0B0E0A0E08093B2
:101580008A0290938B02A0938C02B0938D020895EF
:1015900060918A028CE090E00C948E280E94330DBA
:1015A0008695817080938F0290918A02913029F400
:1015B000882319F089E30E94310F0E943C18809320
:1015C0008E020E94501880918A028230A9F030F475
:1015D00081110DC082EE0E949E0E02C0843099F0EF
:1015E0008FE39CE90197F1F700C00000089588E1BE
:1015F00093E00E948402F4CF82EE0E949E0E87E563
:101600000E94310FEDCF86EE0E94310F88E1F8CFB6
:1016100080918A02823019F030F481110AC082EE82
:101620000E94EB0E02C0843079F080918E020C94FF
:101630004D188CE20E94310F80918F028823A9F30C
:1016400089E30E94310FF1CF88E2FBCF0F931F9304
:10165000CF93DF938C01CCE0D0E0C8010C2E02C008
:10166000969587950A94E2F78F700E94A6032497B7
:10167000CC3F8FEFD80789F7DF91CF911F910F9162
:1016800008950F931F93CF93DF93EC018B01FB0120
:101690008281882361F00E943C18CE01825E9C45C5
:1016A0008530910520F480938A020E94C80AB8010F
:1016B000CE01DF91CF911F910F910C94A30A0F934C
:1016C0001F93CF93DF93C42FD22FFC0182818823F5
:1016D000C9F04093AC010E94E51A9093AB0180934E
:1016E000AA0180E28C0F883008F050C0C77081E0FA
:1016F00001C0880FCA95EAF7DF91CF911F910F9132
:101700000C94390F1091AC01141335C08091AA01CB
:101710009091AB010E94111B883C910560F5C0E2DD
:10172000CD0F1D17B9F080E2810F883040F417709B
:1017300081E001C0880F1A95EAF70E94400FC83077
:1017400048F481E09D2F977001C0880F9A95EAF7C1
:101750000E94390F802F0E94310FC830B8F4D77023
:1017600081E001C0880FDA95EAF7DF91CF911F91F0
:101770000F910C94400F80E28C0F883038F4C770C2
:1017800081E001C0880FCA95EAF7EFCFDF91CF91D2
:101790001F910F9108950F939C01CB01243F4CE5BD
:1017A0003407A1F190F4293DFCE53F0749F12A3DBA
:1017B0004CE53407E9F1283D3C45C1F0FC0182814C
:1017C0008823E1F11092AC0119C0263FFCE53F07E8
:1017D00019F1273F4CE5340729F1253F3C4571F7C6
:1017E00007E225EE44EE65EF7CE505C006E221EE5A
:1017F00041EE68ED7CE50E945F0B80E00F9108955B
:1018000007E225EE45EE69ED7CE5F5CF06E221EE37
:1018100040EE64EF7CE5EFCF06E221EE42EE66EFAC
:101820007CE5E9CF07E225EE46EE67EF7CE5E3CF06
:1018300008E221E045EE6AED7CE5DDCF81E0DECF18
:10184000CF93DF93EC01FB018281882309F4CEC0A2
:10185000C631FCE5DF07E0F4C2309CE5D907F0F0C3
:101860000E940B199093950280939402C631ECE587
:10187000DE0720F5C230FCE5DF0798F48091940282
:10188000909195020E9419190E94001280E006C0F2
:101890009E012B5F3C452930310510F3DF91CF913C
:1018A0000895FE01E350FC45809194028160E3318C
:1018B000F105B0F4EC51F74D0C946A28CE018B5F22
:1018C0009C450997D8F6FE01EC5FFC45E830F10530
:1018D00090F4E950F74D0C946A288091940282604C
:1018E00080939402CBCF809194028460F9CF809151
:1018F00094028860F5CF8091950281608093950273
:10190000BDCF809195028260F9CF80919402806171
:10191000E7CF809194028062E3CF8091940280644B
:10192000DFCF0E940012809194028068D9CF80910D
:1019300094028C60D5CF809195028360DFCF809137
:1019400094028E7FCDCF809194028D7FC9CF8091FC
:1019500094028B7FC5CF80919402877FC1CF809105
:1019600095028E7FCBCF809195028D7FC7CF8091DE
:1019700094028F7EB5CF809194028F7DB1CF8091FC
:1019800094028F7BADCF0E940012809194028F77DA
:10199000A7CF80919402837FA3CF809195028C7F03
:1019A000ADCF8091940282FB992790F921E0922794
:1019B00090FB82F990FB83F993CF80919502982F49
:1019C000909591708E7F892B90FB81F997CF0E9423
:1019D000001290919402892F97FB87F9805880CF4D
:1019E00081E00E949E194ACF80E0FBCF81E056CF74
:1019F000CF93DF93EB0186319C4511F50E943C1893
:101A00009A81992399F08A7A91E009F490E0909371
:101A1000AD01811109C089E20E9417180E948E1839
:101A200080E0DF91CF91089585E3F6CF8091AD01FD
:101A3000811104C089E20E941E18F0CF85E3FBCF1C
:101A400081E0EFCF9093B3018093B2010895E091CC
:101A5000B201F091B301309721F00190F081E02DB7
:101A6000099480E00895E091B201F091B3013097BC
:101A700029F00190F081E02D0995089580E0089506
:101A8000DC01E091B201F091B301309799F08091BF
:101A90002001882351F08091940287FF06C08C9129
:101AA00011968C93119785E08C930280F381E02D41
:101AB000CD0109940895DC01E091B201F091B301E8
:101AC000309739F082E08C930480F581E02DCD01D0
:101AD000099408952091B0013091B1012817390778
:101AE00071F09093B1018093B001E091B201F09157
:101AF000B301309721F00680F781E02D0994089515
:101B00002091AE013091AF012817390771F0909301
:101B1000AF018093AE01E091B201F091B301309733
:101B200021F00084F185E02D099408950E94F11AB6
:101B30006093BE017093BF018093C0019093C10177
:101B40006093BA017093BB018093BC019093BD0177
:101B5000089585B7806885BF85B7806885BF08957B
:101B6000089508950C94B00D08950C94B40D0E943E
:101B7000A90D81EF98E10E94551B0E94B10D0C94B4
:101B8000B20D81E008950C94C10D089508950E944E
:101B9000DC1A0E94FC050E945A1B0C94B50DAF92F2
:101BA000BF92CF92DF92EF92FF920F931F93CF934A
:101BB000DF9300D000D00F92CDB7DEB70E94C50DE5
:101BC0000E94C60D0E942A0681110E94960D85EB87
:101BD000A82E81E0B82E10E000E0C02E802F0E94D9
:101BE000D405F82EF501E1905F01E81609F44EC026
:101BF0008091370281FD0E94DA058E2D8F25D12C30
:101C0000EE24E394982F9E21E1F10E94C30D8823D6
:101C100099F0D982CA82FE2081E009F480E08B83AA
:101C20000E94E51A8160782F9D838C8349815A81B7
:101C30006B81892F0E946D0EF801EB54FE4F80815D
:101C40008E2580830E9484090E9421080E94270D0E
:101C50009091B401891789F10E94270D8093B401F6
:101C60000F900F900F900F900F90DF91CF911F91D9
:101C70000F91FF90EF90DF90CF90BF90AF900C94BA
:101C8000B703D394EE0CF4E0DF12BCCF0F5F1F4F0D
:101C90000530110509F0A1CF8FEF89838A831B825C
:101CA0000E94E51A8160782F9D838C8349815A8137
:101CB0006B81892F0E946D0EC5CF0F900F900F90F2
:101CC0000F900F90DF91CF911F910F91FF90EF90A8
:101CD000DF90CF90BF90AF900895CF93DF93CDB7B3
:101CE000DEB72B970FB6F894DEBF0FBECDBF4F8384
:101CF000588769877A878B8761110E9461181E82D5
:101D000085E0FE013796DE01119601900D928A95CD
:101D1000E1F749815A816B817C818D819E812B966F
:101D20000FB6F894DEBF0FBECDBFDF91CF910C94FC
:101D30005E14FC01808191810C94E117CF93C82F30
:101D4000882309F446C08CEF8C0F813AA0F46C2FE5
:101D500080910801909109010E94B719882329F008
:101D60008C2F0E941E180E948E188C2F0E9417180C
:101D7000CF910C948E1880E28C0F883048F4C77095
:101D800081E001C0880FCA95EAF70E943F18F0CFA2
:101D90008BE58C0F833038F42C2F2452330BC90180
:101DA000CF910C946A0DE8E5EC0FE73150F4F0E0C8
:101DB000EE0FFF1FE55AFE4F80819181CF910C9469
:101DC000800DCD3E30F08C2F0E94A808CF910C944E
:101DD0006A09CF910895882361F19CEF980F913A99
:101DE00020F40E941E180C948E1890E2980F9830E0
:101DF00050F4877091E001C0990F8A95EAF7892F16
:101E00000E944518F0CF9BE5980F933020F490E0A6
:101E100080E00C946A0D98E5980F973120F490E0DB
:101E200080E00C94800D8D3E20F00E94F1080C940F
:101E30006A0908951F93CF93DF93182FEB010E9437
:101E40009E0E209731F4812FDF91CF911F910C943A
:101E5000EB0E8FE99FE00197F1F700C0000021979A
:101E6000F0CF70E060E0893311F460E570E00C942D
:101E70001A0F882321F00E943F180C948E180895A1
:101E8000882321F00E9445180C948E180895AF9273
:101E9000BF92CF92DF92EF92FF920F931F93CF9357
:101EA000DF9300D000D00F92CDB7DEB76C016D8309
:101EB0007983FC011281058102950F700E9435180B
:101EC000E82E8823A1F0E12E112389F08981807FFB
:101ED000803429F08D81805EE12C883040F082E0F2
:101EE0000E94D9180E94351891E0E82EE926A980B1
:101EF000A2949FE0A922B12CF501E150F74D0C947A
:101F00006A2809810F70F981F07F11F00295007F36
:101F10001123B1F0002361F08D81805E883018F0CC
:101F20001D81111109C0802F0E943F180E948E1838
:101F30008D810E949E0E15C0802F0E945318F6CFEF
:101F40008D810E94EB0E002361F08D81805E8830D0
:101F500018F01D81111133C0802F0E9445180E9476
:101F60008E1898E0A91AB108E4E0AE16B10420F486
:101F70000E94270D0E94B703EE2009F4CEC10E94F3
:101F8000311880FDCAC1F60112820E942B180E94EE
:101F90003A16C6010E94B4110E942B180F900F90A0
:101FA0000F900F900F90DF91CF911F910F91FF90A5
:101FB000EF90DF90CF90BF90AF900C946B16802F76
:101FC0000E945918CCCF29812F70F22E3981307F91
:101FD000303219F0F29480EFF8228D81882369F075
:101FE000813049F1112391F1002351F1F6018581EE
:101FF00080FF9ECF8F70858323C0112381F0011154
:1020000006C00E9475188F290E94390FAACF01308F
:10201000C1F70E9475188F290E947B18A2CF011169
:1020200006C00E9484188F2D0E94400F9ACF013065
:1020300009F497CFF6CF112329F0063008F091CF9D
:102040008F2DE2CF053008F08CCFEDCF002359F370
:102050000D81093349F41FEF27EE33E01150204082
:102060003040E1F700C000008D810E94EB0E79CF77
:10207000898186958695837069F0813009F071CFEA
:102080008D8199819370111102C090E080E00E94CF
:10209000800D67CF8D8199819370111102C090E0FE
:1020A00080E00E946A0D5DCF8D81112329F00E948E
:1020B000A8080E946A0955CF0E94F108FACF8981C9
:1020C000837009F050C011114CCF2D8122952695B7
:1020D0002770220F220F4D814F7050E070E060E0BA
:1020E000022E04C0440F551F661F771F0A94D2F7B3
:1020F0000D8180E090E0DC0104FF0FC08FE090E0F4
:10210000A0E0B0E004C0880F991FAA1FBB1F2A954A
:10211000D2F780959095A095B09519811695169552
:1021200013701D838C019D01042B152B262B372B3F
:1021300009831A832B833C831D8169817A818B817A
:102140009C81123051F0133059F0113019F00E9477
:10215000B01507CF0E94881504CF0E94D81501CF73
:102160000E948615FECE112309F448C0098100FFA4
:10217000F8CE2D81229526952770220F220F4D81B2
:102180004F7050E070E060E0022E04C0440F551F15
:10219000661F771F0A94D2F70D8180E090E0DC0182
:1021A00004FF0FC08FE090E0A0E0B0E004C0880F13
:1021B000991FAA1FBB1F2A95D2F780959095A095CD
:1021C000B09519811695169513701D838C019D018C
:1021D000042B152B262B372B09831A832B833C8347
:1021E0001D8169817A818B819C81123071F013305D
:1021F00079F0113039F00E94F916B3CE198111FF30
:10220000B0CEB7CF0E94D116ACCE0E942117A9CE76
:102210000E940416A6CE09810F700983112329F0AC
:10222000802F0E943A168D81EFCE8D810E94400F43
:1022300089810E946B1695CE2D81223FA1F160F419
:10224000203FE1F0213F41F1112309F445C0011184
:102250006FCE89818F7124C03D81333F49F1343F76
:1022600099F7112379F109810F710983802F0E9459
:102270003A1663E089810E94C41873CE112341F09D
:10228000053008F06ECE89818F710E94A01669CE4C
:10229000063008F066CEF7CF89818F71112349F29D
:1022A0000E943A165ECE89818F711123C9F3C1CF86
:1022B000112329F089818F710E94151652CE0E9438
:1022C00010164FCE81E00E94D918023008F449CE92
:1022D00082E00E94D91845CE002361F01D81193398
:1022E00009F0C2CE2FEF37EE83E02150304080401E
:1022F000E1F7B8CE89818F719CCF49814F706D8194
:10230000C6010E94BF030E94F8142BCE49814F7072
:102310006D81C6010E94C20324CE0F900F900F90D2
:102320000F900F90DF91CF911F910F91FF90EF9041
:10233000DF90CF90BF90AF9008950F931F93CF93EE
:10234000DF93EC01688179818A810E94ED178C010D
:102350000E9449170E948515B801CE01DF91CF91E7
:102360001F910F910C94470FCF93DF93EC0198814D
:1023700089812B813C81232B19F089238F3F59F4CC
:10238000DF91CF910895CE010E949D11CE01DF9182
:10239000CF910C94D502CE010E94FE028111F3CFA1
:1023A0000E943518882361F38A81882349F382E0EB
:1023B000DF91CF910C94D918882321F00E945318F3
:1023C0000C948E180895882321F00E9459180C94BB
:1023D0008E18089590E080E00E946A0D90E080E001
:1023E0000E94800D0E9461180E9472180E948E182F
:1023F0000E94950A0C946A090E9425180C94EA110F
:102400000E9450180C94FC11282F892F82958F70F0
:10241000903C80F48A30B0F4843020F4823090F420
:1024200080E008958630E1F781E0283E88F0213F82
:10243000B9F70EC08C3011F08F3091F793FB8827DD
:1024400080F9089581E0203F39F018F4283E40F7E4
:102450000895243F29F7FCCF08950E94E1170C94BA
:102460000412CF93DF9300D000D00F92CDB7DEB728
:102470000F900F900F900F900F90DF91CF910895D4
:10248000CF93DF9300D000D000D0CDB7DEB7269633
:102490000FB6F894DEBF0FBECDBFDF91CF91089588
:1024A0001F93CF93DF93E091C30116E08091C401A5
:1024B0008E1304C0DF91CF911F910895CE2FD0E0ED
:1024C0001E9FF0011124EB53FE4F40815181628128
:1024D0007381848195810E9440122196EC2FE770D0
:1024E000E5CF4091F5015091F6016091F7017091AF
:1024F000F8018091F9019091FA010C9440121F9318
:10250000CF93DF938091FA01807FA9F48091F70146
:10251000882389F08091C301C091C4017091F501B5
:102520006091F601A091F801B091F901D62FD7235F
:1025300016E0C81304C0DF91CF911F91089590E079
:10254000109711F0DF3F19F401968770F2CF189FB2
:102550009001199F300D1124F901EB53FE4F418179
:102560006413F2CF40814713EFCF42814111ECCF8A
:10257000438154814A1B5B0B483C510528F78091ED
:10258000FA018F7080618093FA01F901E653FE4FE2
:1025900080818F708061808385EF91E00E94B4110B
:1025A000DF91CF911F910C945012AF92BF92CF92B6
:1025B000DF92EF92FF920F931F93CF93DF93CDB7EC
:1025C000DEB72B970FB6F894DEBF0FBECDBF8C01E0
:1025D00085E0F801DE01179601900D928A95E1F7EA
:1025E000F801E28030812181C380D48085EFA82E5C
:1025F00081E0B82E9091F5014091F6016091F801CB
:102600007091F9016115710529F0892F84238F3F9D
:1026100009F041C1EE2009F44DC18F8198850E94D7
:102620002D12F82E882309F445C186E0F801A5EFA4
:10263000B1E001900D928A95E1F785EF91E00E945B
:10264000990E0E947F1224C18091FA01582F507F69
:10265000683C710508F07AC05111B5C0FE2C2413F6
:1026600024C0931322C0E11020C08F70806180933A
:10267000FA010E94711285EF91E00E94B4118091DD
:10268000FA01F80185838F2D2B960FB6F894DEBFE3
:102690000FBECDBFDF91CF911F910F91FF90EF90B3
:1026A000DF90CF90BF90AF900895CD2829F0822F72
:1026B00083238F3F09F084C080E0F82FF170DF2E74
:1026C000E091C3014091C40156E080FD1CC0EE20A2
:1026D000D1F28091FA0181608093FA01F12CD3CF7D
:1026E0008E2F90E05E9FF0011124EB53FE4F61812D
:1026F000261306C06081361303C062816E11E7CFD6
:102700000196E82FE770E413EBCF8F8198850E9444
:10271000E117292F22952F70903260F0225F2F70E1
:10272000223078F49F7051F0F8019581907F31F458
:10273000D12C0AC09F7011F08823D1F3805E8830BD
:10274000B8F3C8010E94B411FD2C9DCF51116EC089
:102750004F81588569857A858B850E94311285EF76
:1027600091E00E94B41186E0F50111928A95E9F793
:102770000E947112B3CF86E0F801A5EFB1E001909D
:102780000D928A95E1F77FCF8F8198850E942D1257
:1027900081113DC08091FA0181608093FA01C801E6
:1027A0000E94B41170CF4F81588569857A858B85D9
:1027B0000E94311286E0F50111928A95E9F768C00E
:1027C00081E08E257ACF241306C0931304C0F8014C
:1027D000EE2009F451C08F8198850E942D12882324
:1027E00009F468C0EE2009F465C08091FA018032D6
:1027F00070F02091F5013091F6013A8329831B8214
:10280000DD82CC828E83CE0101960E94B41186E0D7
:10281000F801A5EFB1E001900D928A95E1F70E94D1
:102820007F120E947112FF24F3942DCF2413D3CF73
:102830009313D1CFE110CFCFF8018583C8010E9457
:10284000B41186E0F50111928A95E9F71CCF2413A3
:102850009BCF931399CF8091FA0180FD8CCF982F55
:10286000907F09F488CFF8018583903F31F0982F4D
:10287000907F905F8F70892B8583C8010E94B4116F
:1028800086E0F801A5EFB1E001900D928A95E1F79D
:102890000E947112F8CEF090F701F601E61BF70BDB
:1028A000BF01F110D1CE683C710508F07CCFFE2C41
:1028B000E110CDCFC8010E94B411B5CF1F93CF93C3
:1028C000DF93CDB7DEB72C970FB6F894DEBF0FBEFF
:1028D000CDBF4F83588769877A878B879C87CE01C6
:1028E00007960E94D512882369F08A859B85892BDB
:1028F00039F058854F81852F84238F3F09F071C0AF
:1029000016E05FC086E0FE013796DE011196019069
:102910000D928A95E1F78F8198852091C4014091AD
:10292000C3016A857B85672B59F389238F3F41F368
:1029300030E0C9010196877099274817190671F48C
:102940000E9400121092C4011092C30186E0E5EFCC
:10295000F1E0DF011D928A95E9F7D2CF96E0929FD0
:10296000D001939FB00D1124AB53BE4FFE013196A1
:1029700001900D929A95E1F78093C4010E94501244
:10298000BFCF819FC00111248B539E4F0E94D5124F
:102990008823E9F0E091C3011E9FF0011124EB535D
:1029A000FE4F4081518162817381848195810E94B3
:1029B00040128091C30190E001968770992780931F
:1029C000C3018091C3019091C4018913DACF2C9681
:1029D0000FB6F894DEBF0FBECDBFDF91CF911F9130
:1029E000089569857A858B859C850E94401288CFE1
:1029F000EF92FF920F931F93CF93DF938C01892B5C
:102A000089F0F12CEE24E394E8012196F8018491F9
:102A1000843709F458C0A0F4823009F43FC048F468
:102A20008130D1F0DF91CF911F910F91FF90EF9006
:102A300008959CEF980F9037A8F70E949E0E0AC049
:102A4000853709F44EC09CE7980F903758F78F7779
:102A50000E94EB0E8E0116C00E5F1F4FFE01849187
:102A600090E2980F983060F48770FE2D01C0FF0F40
:102A70008A95EAF78F2F0E9464180E948E1802C070
:102A80000E949E0E8F2D882309F4BECFEFE9FFE050
:102A90003197F1F700C000008150F5CF0E5F1F4F56
:102AA000FE01849190E2980F983050F48770FE2DCB
:102AB00001C0FF0F8A95EAF78F2F0E946A18DDCFB9
:102AC0000E94EB0EDFCF0E5F1F4FFE01C491CC239F
:102AD000C9F28FE99FE00197F1F700C00000C150F3
:102AE000F6CF0E5F1F4FFE01F490CCCF08950C94EB
:102AF00076150E94771560930E0270930F028093F3
:102B00001002909311020C94EA1108950C94791517
:102B1000CF93DF9300D000D0CDB7DEB769837A833F
:102B20008B839C8380910E0290910F02A0911002E2
:102B3000B091110229813A814B815C81282B392B7C
:102B40004A2B5B2B29833A834B835C83CA01B901EF
:102B50000F900F900F900F90DF91CF910C947915FB
:102B6000CF93DF9300D000D0CDB7DEB769837A83EF
:102B70008B839C8380910E0290910F02A091100292
:102B8000B091110229813A814B815C81282339233C
:102B90004A235B2329833A834B835C83CA01B901AF
:102BA0000F900F900F900F90DF91CF910C947915AB
:102BB000CF93DF9300D000D0CDB7DEB769837A839F
:102BC0008B839C8380910E0290910F02A091100242
:102BD000B091110229813A814B815C8128273927E4
:102BE0004A275B2729833A834B835C83CA01B90157
:102BF0000F900F900F900F90DF91CF910C9479155B
:102C00000C9476150C9400160E94021660930A022A
:102C100070930B0280930C0290930D020C94EA11B6
:102C200060E070E0CB010C9404160F931F93CF93D8
:102C3000DF9300D000D0CDB7DEB741E050E060E0D8
:102C400070E08A019B0104C0000F111F221F331F77
:102C50008A95D2F709831A832B833C83C901B80173
:102C60000F900F900F900F90DF91CF911F910F91C8
:102C70000C9404160F931F93CF93DF9300D000D0D2
:102C8000CDB7DEB741E050E060E070E004C0440F33
:102C9000551F661F771F8A95D2F780910A0290917F
:102CA0000B02A0910C02B0910D028A019B01082B2E
:102CB000192B2A2B3B2B09831A832B833C83C901B5
:102CC000B8010F900F900F900F90DF91CF911F914F
:102CD0000F910C9404160F931F93CF93DF9300D0A2
:102CE00000D0CDB7DEB741E050E060E070E004C056
:102CF000440F551F661F771F8A95D2F74095509550
:102D00006095709580910A0290910B02A0910C023F
:102D1000B0910D028A019B01082319232A233B232A
:102D200009831A832B833C83C901B8010F900F904C
:102D30000F900F90DF91CF911F910F910C9404167B
:102D40000F931F93CF93DF9300D000D0CDB7DEB7A2
:102D500041E050E060E070E004C0440F551F661F82
:102D6000771F8A95D2F780910A0290910B02A09169
:102D70000C02B0910D028A019B01082719272A270E
:102D80003B2709831A832B833C83C901B8010F9029
:102D90000F900F900F90DF91CF911F910F910C9496
:102DA0000416CF93DF9300D000D0CDB7DEB7698390
:102DB0007A838B839C8380910A0290910B02A0916D
:102DC0000C02B0910D0229813A814B815C81282B44
:102DD000392B4A2B5B2B29833A834B835C83CA01B3
:102DE000B9010F900F900F900F90DF91CF910C943D
:102DF0000416CF93DF9300D000D0CDB7DEB7698340
:102E00007A838B839C8380910A0290910B02A0911C
:102E10000C02B0910D0229813A814B815C812823FB
:102E200039234A235B2329833A834B835C83CA017A
:102E3000B9010F900F900F900F90DF91CF910C94EC
:102E40000416CF93DF9300D000D0CDB7DEB76983EF
:102E50007A838B839C8380910A0290910B02A091CC
:102E60000C02B0910D0229813A814B815C812827A7
:102E700039274A275B2729833A834B835C83CA011E
:102E8000B9010F900F900F900F90DF91CF910C949C
:102E900004160895E92FEE0FEE0FE80F8E2F8770BE
:102EA00041E001C0440F8A95EAF7E695E695E6957C
:102EB00085E0E89FF0011124E550FE4F30E020E06E
:102EC00070E05191DF011197CB01022E02C096955F
:102ED00087950A94E2F78170819585278423852759
:102EE0008C932F5F3F4F2530310559F70895E92F17
:102EF000EE0FEE0FE80F9E2F9770E695E695E6959C
:102F000085E0E89FF0011124E550FE4F50E040E0DD
:102F100080E0219130E0092E02C0369527950A9471
:102F2000E2F721703327042E01C0220F0A94EAF73A
:102F3000822B4F5F5F4F4530510559F70895BF927F
:102F4000CF92DF92EF92FF920F931F93CF93DF9375
:102F50008C01C0900A02D0900B02E0900C02F0901D
:102F60000D0280910E0290910F02A0911002B0917B
:102F70001102C82AD92AEA2AFB2ACFE1D0E0BC2EC6
:102F8000D701C6010C2E04C0B695A79597958795D5
:102F90000A94D2F780FD0EC0219788F7B12C8B2DB3
:102FA000DF91CF911F910F91FF90EF90DF90CF9025
:102FB000BF900895B8018C2F0E94DF03019761F341
:102FC000EECFCF93DF93D82FC92F0E949F176D2F7D
:102FD0007C2FDF91CF910C94DF031F93CF93DF936E
:102FE000162FD72F9091C201992339F0862F972F52
:102FF000DF91CF911F910C94E117882391F0862FD8
:10300000972F0E949F17C82F682F812F9D2F0E94F6
:103010004A17612F7D2F8C2FDF91CF911F910C9438
:10302000DF03862F972F0E947717C82FF2CF682FC4
:1030300080910801909109010C943B1A682F8091AE
:103040000801909109010C94461A80910801909111
:1030500009010C94511A80911202859585958595E8
:1030600008958091120287700895909112029770CE
:1030700081E009F480E008958091360208959091EE
:103080003602982B909336020895982F9095809150
:10309000360289238093360208958093360208957C
:1030A00010923602089590913502982B9093350234
:1030B0000895982F90958091350289238093350249
:1030C000089510923502089590913402982B9093B0
:1030D00034020895982F909580913402892380932B
:1030E00034020895109234020895809113020895D5
:1030F00008950C94781890911302981721F08093FA
:1031000013020C947918089580911302882329F0F2
:103110001092130280E00C9479180895E091080150
:10312000F0910901809136028083E0910801F091CD
:103130000901808190913502892B8083E0910801FB
:10314000F0910901808190913402892B80839091C4
:103150001302992381F0E0910801F0910901808127
:10316000892B808380910801909109010E94A31905
:1031700081110E94841880910801909109010C949A
:10318000400D08950C94C11898E0899F9001112476
:10319000622B609312020E943A168091120285956A
:1031A000859585950C94C2181092120280E00C94BB
:1031B000C218909112028095892380931202282FC1
:1031C000277071F4282F082E000C330B921713066A
:1031D00039F08595859585950E946B160C94D418C9
:1031E000089580E0089590E080E00E9488289C0186
:1031F00081E02B3E3E4F09F080E0089582E090E0B0
:103200000C94802883E090E00C948028682F83E061
:1032100090E00C948E28CF9384E090E00E94802868
:10322000C82F81E290E00E948028982F8C2FCF91A8
:103230000895CF93682FC92F84E090E00E948E28D4
:103240006C2F81E290E0CF910C948E28AB01BC01F1
:103250008FE090E00C94A028AB01BC0183E190E0EA
:103260000C94A02860E070E0CB010C942C1960E075
:1032700070E0CB010E9426190C9432196BEE7EEFA0
:1032800090E080E00E94AC2860E082E090E00E9444
:103290008E2860E083E090E00E948E2810920E025B
:1032A00010920F02109210021092110260E084E05E
:1032B00090E00E948E2860E081E290E00E948E28DB
:1032C00060E085E090E00E948E2860E086E090E07B
:1032D0000E948E286FEF87E090E00E948E2840E0E9
:1032E00050E0BA0188E090E00E94A02860E08DE004
:1032F00090E00E948E2840E050E0BA0188E190E022
:103300000E94A02860E087E190E00E948E2840E0C3
:1033100050E0BA018CE190E00E94A02860E080E2D9
:1033200090E00E948E2840E050E0BA0188E190E0F1
:103330000E94A0280C9437190C943E19682F8EE037
:1033400090E00C948E28FC01329680912001882315
:1033500021F0809194029EE187FF96E080E09150F9
:1033600008F4089521912223D1F38F5FF8CF9C01B7
:10337000662301F1809120018823F1F0809194026D
:1033800087FF1AC0462F469546954695603F90F4B4
:10339000677081E090E002C0880F991F6A95E2F79C
:1033A000240F311DF901228130E02823392381E0E7
:1033B000232B71F480E00895F9013296285F3F4F86
:1033C0008191861721F0E217F307D1F7F3CF81E05F
:1033D00008959C01FC0132968FEF90E041914617D1
:1033E00051F08F3F19F4411101C0892F9F5F963032
:1033F000A9F78F3F09F40895280F311D87FD3A95ED
:10340000F901628308959C01FC013296285F3F4FC9
:103410008191861303C0DF0111971C92E217F30715
:10342000B9F70895FC01862F869586958695603FAD
:1034300060F4E80FF11D677021E030E001C0220F59
:103440006A95EAF78281822B82830895FC01862F98
:10345000869586958695603F68F4E80FF11D677044
:1034600081E090E001C0880F6A95EAF7809592812B
:1034700089238283089520912001222329F020911D
:10348000940227FD0C94121A0C94E9192091200142
:10349000222329F02091940227FD0C94261A0C94E3
:1034A000031AFC01329680912001882351F080910B
:1034B000940287FF06C08EE1DF011D928A95E9F72D
:1034C000089586E0F9CF089508950C94641A8091C8
:1034D0008703843049F10E94651A80E00E94B70397
:1034E0001092380288E190E020E40FB6F894A89595
:1034F000809360000FBE2093600083B7817F84605B
:1035000083BF83B7816083BF7894889583B78E7FAC
:1035100083BF0FB6F894A89580916000886180936E
:103520006000109260000FBE08950895CF930E942E
:10353000631A0E942A060E94951AC0E08C2F0E94EE
:10354000D405811105C0CF5FC530C1F7CF91089573
:1035500081E0FCCF08950C94AA1A0E9400120E94E8
:10356000270D0E94B7030C94AB1A1F921FB61F922F
:1035700011248F939F93AF93BF9380913802811151
:1035800013C08091900290919102A0919202B0910B
:1035900093024196A11DB11D8093900290939102D8
:1035A000A0939202B0939302BF91AF919F918F919C
:1035B0001F901FBE1F90189582E084BD93E095BDBB
:1035C0009AEF97BD80936E0008952FB7F89480917D
:1035D000900290919102A0919202B09193022FBF1C
:1035E0000895CF93DF9300D000D0CDB7DEB78FB76B
:1035F000F894209190023091910240919202509162
:10360000930229833A834B835C838FBF69817A81DC
:103610008B819C810F900F900F900F90DF91CF9135
:1036200008959C014FB7F894809190029091910277
:10363000A0919202B09193024FBF821B930B089509
:1036400078941F921FB61F9211248F939F93AF936C
:10365000BF938091900290919102A0919202B091BB
:1036600093020196A11DB11D809390029093910247
:10367000A0939202B0939302BF91AF919F918F91CB
:103680001F901FBE1F90189587E797E7909301083A
:103690008093000888E19AE00FB6F894A89580938B
:1036A00060000FBE90936000FFCF909399018093CC
:1036B00098010895CF93DF9300D000D0CDB7DEB747
:1036C0000E94F318811102C00E949C190E94FE18EA
:1036D000809337020E940B19909395028093940275
:1036E0000E940219282F30E050E040E0CA01B901E1
:1036F0000E94861580910A0290910B02A0910C0203
:10370000B0910D0289839A83AB83BC83BC01CD0148
:103710000F900F900F900F90DF91CF910C940216A5
:10372000881F8827881F0895982F81E0983F08F404
:1037300080E00895982F907F903DF1F080F4903BC9
:1037400031F038F4903A19F0807E8038B9F483E093
:10375000089581E0903C09F080E0880F0895903E44
:10376000B1F3903F59F4EFE0E80F813F38F0F0E01B
:10377000E757FE4F8081089582E0089580E0089524
:103780000F93DC01ED91FC9109950F9108954F92F3
:103790005F926F927F928F929F92AF92BF92CF92E1
:1037A000DF92EF92FF920F931F93CF93DF9300D09E
:1037B0000F92CDB7DEB7182F792E5B014A01D12CBD
:1037C000C12C609021015090220140902301CA1425
:1037D000DB04A0F00F900F900F90DF91CF911F911D
:1037E0000F91FF90EF90DF90CF90BF90AF909F90A0
:1037F0008F907F906F905F904F90089569825A826A
:103800004B827501EC18FD0884E0E816F10418F00D
:1038100083E0E82EF12CB4016C0D7D1DA701CE01D3
:1038200001960E9477280B812A814981B701812F57
:10383000972D0E94C01B83E0C80ED11CC8CFFC018D
:10384000738362830895FC01738F628F0895FC0176
:10385000758F648F0895CF93DF93EC011DA21FA293
:103860001EA2BC01685D7F4F40EC88519F4F0E94B3
:103870002F1E1B821A821D821C821F821E821986A5
:1038800018861B861A861D861C861F861E86198A28
:10389000188A1B8A1A8A1D8A1C8A1F8A1E8A198EF8
:1038A000188E1B8E1A8E1D8E1C8E1F8E1E8E19A2B8
:1038B00018A2DF91CF910895EF92FF920F931F937B
:1038C000CF93DF93EA017A01E60EF11C8C010851D7
:1038D0001F4FCE15DF0539F4DF91CF911F910F9166
:1038E000FF90EF9008956991C8010E94361EF1CFB4
:1038F000FC01718360830895FC0171A360A30895A6
:10390000AF92BF92CF92DF92EF92FF920F931F93ED
:10391000CF93DF9300D00F92CDB7DEB77C016B0160
:10392000142FB22EA02EDC0195968C9195978430A1
:10393000A9F55A96ED91FC913097E9F1CB010197E9
:1039400063E070E00E944228CB01880F991F860F28
:10395000971F4983BA820B834C2D481B9E012F5F12
:103960003F4FBC01C7010995D7015E96ED91FC91CF
:10397000309731F00A2D2B2D412FB601C701099543
:103980000F900F900F90DF91CF911F910F91FF90AB
:10399000EF90DF90CF90BF90AF90089562307105A7
:1039A00009F452C06330710599F06130710509F472
:1039B0007AC0D12CC12CD7015C96ED91FC91309747
:1039C00099F20A2D2B2D412FB601C7010995CCCFB5
:1039D000842F807F803BF1F058F4803931F1803AB8
:1039E00049F1803841F7D7011696ED91FC9116C048
:1039F000803E29F1803FF9F6423FE9F6D7011C9657
:103A0000ED91FC91202F4B2D62EF3097A1F2C70171
:103A10000995AACFD7011296ED91FC91309759F2F2
:103A20002A2D4B2D612F6F70F2CFD7011496ED9197
:103A3000FC91F4CFD7011896ED91FC91EFCFD7010F
:103A40001A96ED91FC91EACF842F807F803D81F022
:103A5000803F99F0803C09F0AECFD7011E96ED91E2
:103A6000FC91309709F4A7CF4B2D612F6F7010C0D8
:103A7000D7015096ED91FC91F4CF433F61F4D7010B
:103A80005296ED91FC914B2D612F309709F493CF15
:103A9000C701099569CF413F09F08DCFD7015496F1
:103AA000ED91FC91F0CF842F0E94941B882359F054
:103AB000D7015696ED91FC91309709F47CCF612F98
:103AC000C701099551CF163F09F075CFD701589618
:103AD000ED91FC91F1CFFF920F931F93CF93DF9362
:103AE000EC01162F862F0E94941B882391F0FDA0D5
:103AF00081E08DA300E020E0412F61E070E0CE0185
:103B00000E94801CFDA2DF91CF911F910F91FF9029
:103B10000895812F0E94901B4DA1882309F443C072
:103B2000443029F01AA381E090E09FA38EA3812F57
:103B30000E949A1B823069F1D0F481111EC0103F9F
:103B400051F1173FB1F42EA13FA1C90163E070E02C
:103B50000E944228FE01E80FF91F12A3B9016F5F0E
:103B60007F4F7FA36EA30CA12BA14AA10DC0833070
:103B700081F01DA21FA21EA2C6CF81E08DA300E08E
:103B800020E0412F61E070E0CE010E94801C1DA268
:103B9000BACF8DA3B8CF84E08DA31AA381E090E0C3
:103BA0009FA38EA3B0CF442309F4ADCF2EA13FA194
:103BB000C90163E070E00E944228FE01E80FF91F8E
:103BC00012A3B9016F5F7F4F7FA36EA38130910570
:103BD00069F0029709F097CF0CA12BA14AA1CE0161
:103BE0000E94801C8DA18430C9F68DCF00E0423048
:103BF00009F089CFF2CFCF92DF92EF92FF920F932D
:103C00001F93CF93DF93EC01E8A1F9A1309709F05E
:103C100009956E0188EEC80ED11CC6010E94651E72
:103C200010E000E0E82EF12C0E151F0548F0DF91A2
:103C3000CF911F910F91FF90EF90DF90CF9008955B
:103C400060E0C6010E94791E682FCE010E946B1DA4
:103C500061E0C6010E94891E0F5F1F4FE5CFFC0186
:103C60004283748363831182108208951F93CF93DC
:103C7000DF93EC01162F0E94A01E282FE981F0E0AF
:103C8000CF0101966A8170E00E945628388138176A
:103C9000190641F4822F0E94A31E80E0DF91CF918C
:103CA0001F9108958B819C81E80FF91F10839981E2
:103CB000892F90E001966A8170E00E9456288983DE
:103CC000822F0E94A31E81E0E9CFCF93DF93EC0106
:103CD0000E94A01E99812881921740F0C92FC21B13
:103CE0000E94A31E8C2FDF91CF9108953A81930FEC
:103CF000F5CFFC018081860F9927991F628170E0C2
:103D00000E94562823813481280F391FF9018081B0
:103D100008951F93CF93DF93EC01162F0E94A01EEE
:103D2000282F8881810F9927991F6A8170E00E944E
:103D300056288883822FDF91CF911F910C94A31E68
:103D40008FB7F89408958FBF08959C01482F47704E
:103D500083E0369527958A95E1F757E0529FC00199
:103D6000539F900D1124442319F00197840F911D46
:103D700008958F929F92BF92CF92DF92EF92FF921F
:103D80000F931F93CF93DF934C018B01CA0167E020
:103D900070E00E944228D401D0E0C0E030E020E092
:103DA0002617370709F03FC0B90143E0660F771FB8
:103DB0004A95E1F7009751F1F401E60FF71F1082E1
:103DC00047E0429FE001439FD00D1124C00FD11F57
:103DD00030E020E0A9912F5F3F4F4A2F407850E01C
:103DE000022E02C0559547950A94E2F75081452B63
:103DF0004083AF01420F531F1A2F1F77DA011C9324
:103E00008217930739F70196680F791FCB01DF916D
:103E1000CF911F910F91FF90EF90DF90CF90BF90C7
:103E20009F908F9008951C927801EC0EFD1E50E03B
:103E300040E0F701B1907F014F5F5F4FFB2DF078BD
:103E4000CF2ED12C042E02C0D594C7940A94E2F749
:103E5000DC90DC28DC926D01C40ED51EE894B7F826
:103E6000F601B0824730510521F72F5F3F4F27966B
:103E7000189696CF6F927F929F92AF92BF92CF92F9
:103E8000DF92EF92FF920F931F93CF93DF933C014A
:103E9000DB019A0190E080E04230510568F15A015F
:103EA00083E0B694A7948A95E1F7EB0110E000E077
:103EB00070E060E06A157B0569F5422F477057E0B6
:103EC000569FC001579F900D11244423A9F0287FCD
:103ED0005D01A20EB31EE501F301E80FF91F70E0CA
:103EE00060E050E08A0101501109219660177107C6
:103EF000D0F10197840F951FDF91CF911F910F9102
:103F0000FF90EF90DF90CF90BF90AF909F907F9009
:103F10006F9008957301E00EF11E41E050E0CE0174
:103F2000840F951FFC018081982EE89497F8F70183
:103F300091927F016F01F1E0CF1AD1088881042EA0
:103F400001C0880F0A94EAF780788929F6018083F6
:103F50004F5F5F4F4830510511F76F5F7F4F2896D5
:103F6000095F1F4FA7CF2881D22EE894D7F8D192AE
:103F70006F5F7F4F7F0121E0E21AF108D5012C919C
:103F8000062E01C0220F0A94EAF720782D29D701C6
:103F90002C93ABCF08950895EF92FF920F931F9348
:103FA000CF93DF93CDB7DEB7A0970FB6F894DEBFFF
:103FB0000FBECDBF8B0104501109F9018E2F821B5A
:103FC0008417B0F417FD28C08081873FF1F4C80141
:103FD0000E94A51E7C01A80169E372E0CE01019652
:103FE0000E943A1FBE016F5F7F4FC7010E944807C2
:103FF000A0960FB6F894DEBF0FBECDBFDF91CF9174
:104000001F910F91FF90EF9008950532110584F7ED
:10401000D801A75CBD4F8C9331960F5F1F4FCECF59
:104020000F931F93CF93DF9300D000D000D00F9257
:10403000CDB7DEB7182F092FCE0101960E94A0221E
:1040400081110BC027960FB6F894DEBF0FBECDBF0F
:10405000DF91CF911F910F9108958A810E949A1B41
:10406000682F8A818D838B818E838C818F836111F0
:1040700008C06981643069F08BEF860F645083302B
:10408000D8F6AE014B5F5F4F812F902F0E945C1CD2
:10409000D3CF63E0F6CFDF92EF92FF920F931F939F
:1040A000CF93DF9300D000D0CDB7DEB77B01142FC4
:1040B000D22E4A832B830C83842F0E949A1B81115A
:1040C00029C082E0E816F10481F083E0E816F104EB
:1040D00039F0EA94EF2891F4173F29F415E009C06C
:1040E00017E0073F31F014E004C087EF16E0D81264
:1040F000FACF1983CE0101960E949B220F900F9058
:104100000F900F90DF91CF911F910F91FF90EF9043
:10411000DF90089512951F70ECCF86E992E00E941F
:104120002B1C6BE470E286E992E00E94781C60E14F
:1041300070E286E992E00E947C1C6AEC7FE186E9ED
:1041400092E00E94271C6BEC7FE186E992E00E94DE
:104150001F1C6CEC7FE186E992E00C94231CFC01AF
:10416000CB01209187032430B1F421812F7020935B
:10417000E90050E040E064E070E00E9468238111B3
:104180000BC09091E80095FD07C09091E8009E77E4
:104190009093E800089582E00895FC0180918703E0
:1041A000843089F481818F708093E9009091F300CD
:1041B0008091F200892B49F08091E8008E778093FE
:1041C000E8000C940E2582E0089580E00895FC013B
:1041D00080918703843059F481818F708093E90046
:1041E0008091E80080FF03C0CF010C94CD2008959A
:1041F000FC01CB0120918703243011F080E0089569
:1042000026812F702093E9002091E80022FFF6CF4D
:104210002091E80025FFF2CF50E040E064E070E03C
:104220000E94B7238091E80085FD05C08091E800D9
:104230008B778093E80081E0089580917E02089555
:10424000CF93DF9300D00F92CDB7DEB79091870365
:10425000943019F589836A837B8382E08093E90037
:104260008FEF9091E800815095FD06C095ED9A95ED
:10427000F1F700008111F5CF8091E80085FF0DC0B6
:1042800050E040E063E070E0CE0101960E946823B8
:104290008091E8008E778093E8000F900F900F9048
:1042A000DF91CF910895BC0184E00C942021BC01E2
:1042B00083E00C94202122E02093E9002FEF30913D
:1042C000E800215035FD06C035ED3A95F1F70000C4
:1042D0002111F5CF2091E80025FF0BC050E040E010
:1042E00066E070E00E9468238091E8008E778093FA
:1042F000E8000895CF93DF93D82FC92F8091200134
:104300008823C1F18091940287FF34C060E282E08B
:104310008093E9008FEF9091E800815095FD06C0F1
:1043200095ED9A95F1F700008111F5CF8091E800A5
:1043300085FF1DC08091200170E050E040E08111B8
:1043400004C050E040E068E070E08D2F9C2F0E9498
:1043500068238091E8008E778093E80080E2ED2F5B
:10436000FC2FAEE5B2E001900D928A95E1F7DF9166
:10437000CF91089568E081E0CBCF809186038111D1
:1043800009C00E943F250E949C258091E200846024
:104390008093E20008951092860308950895089589
:1043A000089542E061EC81E00E94BB2442E261ECAE
:1043B00082E00E94BB2442E361E883E00E94BB24C8
:1043C00042E361E884E00C94BB2480918903893046
:1043D00089F148F4823009F49DC0833009F458C053
:1043E000813041F008958A3009F484C08B3009F49B
:1043F0006AC0089580918803813A09F048C080918D
:10440000E800877F8093E80080918C0390918D0372
:10441000892B61F460E28EE592E070E00E94062450
:104420008091E8008B778093E800089560E090E049
:1044300080E0F3CF80918803813249F580918C032D
:1044400090918D03029718F58091E800877F809303
:10445000E8008091E80082FF16C09091F3008091FF
:10446000F200029729F48091F1008B7F813021F4D2
:104470008091F10080937E028091E8008B77809399
:10448000E8000C94EF24809187038111E2CF089516
:1044900080918803813AD9F780918C0390918D03A4
:1044A000892BA9F78091E800877F8093E8008091AD
:1044B000E80080FFFCCF809120018093F100809183
:1044C000E8008E77DCCF80918803813201F78091FC
:1044D0008C0390918D03892BD1F68091E800877F22
:1044E0008093E8000E94EF2480918A03809320014A
:1044F0000C94001280918803813249F68091E80083
:10450000877F8093E8000E94EF2480918B03809343
:104510007F02089580918803813A09F0B8CF809195
:10452000E800877F8093E8008091E80080FFFCCF5F
:1045300080917F02C2CFBC018AE091E00C94AF2051
:10454000BC018AE091E00C94F8200E948D2084B791
:10455000877F84BF0FB6F894A8958091600088612A
:1045600080936000109260000FBE80E890E00FB66C
:10457000F89480936100909361000FBE0E94B70D84
:104580000E943F250E949C258091E20084608093D8
:10459000E20078940E9428280E94C70D86E191E0ED
:1045A0000E94220D809187038530C9F00E94CF0DB3
:1045B0008AE091E00E94E7200E94C50D0E94C60D8E
:1045C000F1CF0E94671A80918503882341F00E94F1
:1045D000961A882321F00E9452230E940012809193
:1045E0008703853071F30E94AD1AE0CF0C94F82256
:1045F000FC01CB01DA012F2F332723303105D1F015
:1046000070F42130310509F43EC02230310569F4DF
:104610008FE990E026E232E02D933C930895213219
:104620003105E9F02232310521F190E080E030E0FF
:1046300020E0F2CFCF019927E13059F08230910587
:1046400059F0E2E2F2E0892B81F7849190E09F013A
:10465000E3CFE4E1F2E0F9CFECEAF1E0F6CF892B29
:10466000B9F06130710509F789E090E021E532E0A9
:10467000D3CF892B91F061307105B9F686EB90E0CC
:1046800027ED32E0C9CF82E190E025EC32E0C4CFE3
:1046900089E090E028E332E0BFCF80E490E02DE8AD
:1046A00033E0BACF80E189BD82E189BD09B400FE63
:1046B000FDCF8091D8008F7D8093D8008091E0005D
:1046C00082608093E0008091E00081FDFCCF08953E
:1046D000AF92BF92CF92DF92FF920F931F93CF932F
:1046E000DF936C01EB018A010E940E25F82E8111E7
:1046F00023C00115110539F0F80180819181C81B93
:10470000D90BC80ED91EB12CA12C2097A9F08091ED
:10471000E80085FD22C08091E8008E778093E80054
:1047200001151105A1F0F801808191818A0D9B1D71
:104730009183808385E0F82E8F2DDF91CF911F919B
:104740000F91FF90DF90CF90BF90AF9008950E949F
:104750000E258823D1F2F82EEFCFF60181916F015B
:104760008093F1002197FFEFAF1ABF0ACECFAF922F
:10477000BF92CF92DF92FF920F931F93CF93DF935D
:104780006C01EB018A010E940E25F82E811123C0D5
:104790000115110539F0F80180819181C81BD90BF1
:1047A000C80ED91EB12CA12C2097A9F08091E80049
:1047B00085FD22C08091E8008B778093E800011589
:1047C0001105A1F0F801808191818A0D9B1D9183D3
:1047D000808385E0F82E8F2DDF91CF911F910F916F
:1047E000FF90DF90CF90BF90AF9008950E940E256C
:1047F0008823D1F2F82EEFCF8091F100F60181935A
:104800006F012197FFEFAF1ABF0ACECFFC01CB019A
:1048100020918E0330918F032617370790F0009771
:1048200029F42091E8002E772093E80040E00097DB
:1048300051F4411108C08091E80082FF31C080E04E
:104840000895C901F3CF209187032223A9F12530D0
:10485000A9F12091E80023FD2DC02091E80022FD60
:10486000EACF2091E80020FFE2CF3091F3002091C1
:10487000F200009719F02830310558F041E0283057
:10488000310509F040E02091E8002E772093E80000
:10489000CECF41914093F10001972F5F3F4FE9CF79
:1048A00080918703882341F0853041F08091E800B2
:1048B00083FFC1CF81E0089582E0089583E00895E9
:1048C000FC01CB0120918E0330918F03261737070F
:1048D00090F0009729F42091E8002E772093E800CB
:1048E00040E0009751F4411108C08091E80082FF38
:1048F00032C080E00895C901F3CF209187032223BD
:10490000B1F12530B1F12091E80023FD2EC02091B6
:10491000E80022FDEACF2091E80020FFE2CF3091AD
:10492000F3002091F200009719F02830310558F07B
:1049300041E02830310509F040E02091E8002E7771
:104940002093E800CECF44914093F1003196019737
:104950002F5F3F4FE8CF80918703882341F0853058
:1049600041F08091E80083FFC0CF81E0089582E0AC
:10497000089583E00895982F973028F08F708093E2
:10498000E90081E008959093E900242F762F50E00C
:10499000981731F07091EC002091ED005091F000EB
:1049A00021FD02C09F5FE8CF3091EB003E7F309346
:1049B000EB003091ED003D7F3093ED003091EB0046
:1049C00031603093EB007093EC002093ED00509336
:1049D000F0002091EE0027FDE5CF80E00895809162
:1049E000880387FF13C08091E80082FF06C0809192
:1049F000E8008B778093E80004C0809187038111E1
:104A0000F2CF0895809187038823D9F38091E8003D
:104A100080FFF8CF8091E8008E77ECCF2091E40002
:104A20003091E50095E6A9012091EC00822F81707C
:104A300020FF06C08091E80080FF06C080E0089556
:104A40002091E80022FD1AC080918703882389F015
:104A5000853089F08091EB0085FD0FC02091E40046
:104A60003091E50042175307F9F29150E1F684E0E6
:104A7000089582E0089583E0089581E008950E94FA
:104A8000AD250E94B525E0EEF0E080818160808355
:104A9000E8EDF0E080818F77808319BCA7EDB0E06E
:104AA0008C918E7F8C9380818F7E80831092860381
:104AB00008950F931F93CF93DF930E94AD250E941B
:104AC000B525C8EDD0E088818F778883888180689C
:104AD000888388818F7D888319BC10928703109208
:104AE0008303109285031092840300EE10E0F80116
:104AF00080818B7F808388818160888342E060E051
:104B000080E00E94BB24E1EEF0E080818E7F808314
:104B1000E2EEF0E080818160808380818860808324
:104B2000F80180818E7F8083888180618883DF9116
:104B3000CF911F910F910895E8EDF0E080818F7E75
:104B40008083E7EDF0E080818160808384E082BF34
:104B500081E0809386030C945925E8EDF0E0808194
:104B60008E7F80831092E20008951092DA001092F6
:104B7000E10008951F920F920FB60F9211242F9308
:104B80003F934F935F936F937F938F939F93AF93D5
:104B9000BF93EF93FF938091E10082FF0BC0809160
:104BA000E20082FF07C08091E1008B7F8093E100EB
:104BB0000E9427288091DA0080FF19C08091D800D8
:104BC00080FF15C08091DA008E7F8093DA0080919B
:104BD000D90080FF94C080E189BD82E189BD09B41C
:104BE00000FEFDCF81E0809387030E94BD2180916C
:104BF000E10080FF19C08091E20080FF15C0809124
:104C0000E2008E7F8093E2008091E20080618093D9
:104C1000E2008091D80080628093D80019BC85E0C2
:104C2000809387030E94CF218091E10084FF29C0F7
:104C30008091E20084FF25C080E189BD82E189BDC9
:104C400009B400FEFDCF8091D8008F7D8093D800FD
:104C50008091E1008F7E8093E1008091E2008F7E61
:104C60008093E2008091E20081608093E200809175
:104C70008303882309F449C084E0809387030E945A
:104C8000D0218091E10083FF29C08091E20083FF61
:104C900025C08091E100877F8093E10082E08093CE
:104CA0008703109283038091E1008E7F8093E1005F
:104CB0008091E2008E7F8093E2008091E20080612B
:104CC0008093E20042E060E080E00E94BB2480919B
:104CD000F00088608093F0000E94CE21FF91EF9158
:104CE000BF91AF919F918F917F916F915F914F9104
:104CF0003F912F910F900FBE0F901F90189519BCE8
:104D0000109287030E94CB2172CF8091E30087FD30
:104D100002C081E0B2CF83E0B0CF1F920F920FB6F6
:104D20000F921124FF920F931F932F933F934F9352
:104D30005F936F937F938F939F93AF93BF93CF9323
:104D4000DF93EF93FF9309EE10E0F8018081C091AB
:104D5000EC00C795CC27C7958F70FC2EF82A1082DF
:104D6000C0EFD0E08881877F888378940E94D62620
:104D7000F8011082888188608883CF2DCF70C0832E
:104D8000FF91EF91DF91CF91BF91AF919F918F9163
:104D90007F916F915F914F913F912F911F910F9153
:104DA000FF900F900FBE0F901F9018951F93CF93F9
:104DB000DF93CDB7DEB7AA970FB6F894DEBF0FBE6C
:104DC000CDBF88E893E0FC0101962091F10020839B
:104DD00023E080399207B9F70E94E5218091E8002D
:104DE00083FF1DC180918803909189039A3008F058
:104DF00016C1E92FF0E0E15FF64D0C946A28803887
:104E000099F0823809F00BC180918C038F70873044
:104E100008F005C18093E9008091EB0085FB8827AD
:104E200080F91092E90006C0809184039091850377
:104E3000911182609091E800977F9093E8008093B1
:104E4000F1001092F1008091E8008E77E4C0882391
:104E500009F4D2C0823009F0E2C080918A03811146
:104E6000D5C080918C038F702FEF280F263008F06B
:104E7000D6C08093E9002091EB0020FFC7C093309B
:104E800031F48091EB0080628093EB00BFC0909181
:104E9000EB0090619093EB0021E030E001C0220F25
:104EA0008A95EAF72093EA001092EA008091EB00DD
:104EB0008860EACF8111B3C010918A031F77809177
:104EC000E3008078812B8093E3008091E800877F66
:104ED0008093E8000E94EF248091E80080FFFCCFDF
:104EE0008091E30080688093E30082E0111183E009
:104EF0008093870394C08058823008F090C08091DE
:104F00008A0390918B038C3D23E0920799F583E00F
:104F10008A838AE289834FB7F894DE01139620E0F2
:104F20003EE051E2E32FF0E050935700849120FFE0
:104F300003C082958F703F5F8F708A30C8F0895CA4
:104F400090E08D939D932F5F243161F74FBF809147
:104F5000E800877F8093E8006AE270E0CE01019666
:104F60000E9406248091E8008B778093E80057C068
:104F7000805DE6CF60918C0370918D03AE014F5F31
:104F80005F4F0E94F622BC01892B09F448C0809132
:104F9000E800877F8093E80089819A810E946024DD
:104FA000E1CF8038E1F58091E800877F8093E800C9
:104FB000809183038093F10046CF811130C090919E
:104FC0008A03923060F58091E800877F8093E80043
:104FD000909383030E94EF2480918303882311F030
:104FE00084E005C08091E30087FDFACF81E08093E3
:104FF00087030E94D12113C080918A03813079F404
:1050000081E0933009F080E0809385031092E900FD
:105010008091E800877F8093E8000E94EF248091D0
:10502000E80083FF0AC08091E800877F8093E80052
:105030008091EB0080628093EB00AA960FB6F89403
:10504000DEBF0FBECDBFDF91CF911F9108950895B0
:10505000CF9380918703882399F08091E900C091D4
:10506000EC00C795CC27C7958F70C82B1092E9002C
:105070008091E80083FD0E94D626CF70C093E9009E
:10508000CF910895AA1BBB1B51E107C0AA1FBB1FEC
:10509000A617B70710F0A61BB70B881F991F5A95C4
:1050A000A9F780959095BC01CD01089597FB072E37
:1050B00016F4009407D077FD09D00E94422807FC1F
:1050C00005D03EF4909581959F4F08957095619518
:1050D0007F4F0895EE0FFF1F0590F491E02D099486
:1050E0006927962769277827872778270895FB015E
:1050F000DC0102C001900D9241505040D8F7089554
:10510000F999FECF92BD81BDF89A992780B508958F
:10511000A8E1B0E042E050E00C94B428262FF999C1
:10512000FECF92BD81BDF89A019700B4021639F006
:105130001FBA20BD0FB6F894FA9AF99A0FBE0895D7
:105140000396272F0E948F280E948E28252F0E94C9
:105150008F28242F0C948F280196272F0E948F28A8
:105160000C948E28DC01CB01FC01F999FECF06C01E
:10517000F2BDE1BDF89A319600B40D924150504015
:10518000B8F70895F894FFCFAF07D207DE070C08F1
:10519000000806086607C307FA076607660766077A
:1051A0001608B108B708BA08C008D508D508D50848
:1051B000D508D508D508D508D508C308C808CC082F
:1051C000D208E308E908ED086D0C730C770C850C28
:1051D000890C8D0C910C970C9F0CA30CA70CAB0C9D
:1051E000B70CBB0CBF0CC30CC90CE70CD10C810C69
:1051F000AF0CB30C9B0CCD0CDD0CF00CF40C810F40
:10520000810FE30FE30F38105410B10FB10F5F108F
:105210000B111C111C117D11B10FB10F8611FF264E
:1052200027270F2827270F285A277B270F28D12722
:02523000DD2778
:105232002808641E140A321E14020383400000016F
:105242000440000001001D217A215B2157215321D6
:1052520001000000E200E900EA00B500B600B70074
:10526200CD008301CC008A01920194012102230224
:1052720024022502260227022A02B300B4006F008C
:105282007000313332366697C63435E200E900EAFF
:1052920000B500B600B700CD008301CC008A0192B0
:1052A2000194012102230224022502260227022A56
:1052B20002B300B4006F007000020302000001009C
:0852C2000101010101000101DD
:00000001FF
